{
  "contractName": "TaskContract",
  "abi": [
    {
      "anonymous": false,
      "inputs": [
        {
          "indexed": false,
          "internalType": "address",
          "name": "recipient",
          "type": "address"
        },
        {
          "indexed": false,
          "internalType": "uint256",
          "name": "taskId",
          "type": "uint256"
        }
      ],
      "name": "AddTask",
      "type": "event"
    },
    {
      "anonymous": false,
      "inputs": [
        {
          "indexed": false,
          "internalType": "uint256",
          "name": "taskId",
          "type": "uint256"
        },
        {
          "indexed": false,
          "internalType": "bool",
          "name": "isDeleted",
          "type": "bool"
        }
      ],
      "name": "DeleteTask",
      "type": "event"
    },
    {
      "constant": false,
      "inputs": [
        {
          "internalType": "string",
          "name": "taskText",
          "type": "string"
        },
        {
          "internalType": "bool",
          "name": "isDeleted",
          "type": "bool"
        }
      ],
      "name": "addTask",
      "outputs": [],
      "payable": false,
      "stateMutability": "nonpayable",
      "type": "function"
    },
    {
      "constant": true,
      "inputs": [],
      "name": "getMyTasks",
      "outputs": [
        {
          "components": [
            {
              "internalType": "uint256",
              "name": "id",
              "type": "uint256"
            },
            {
              "internalType": "string",
              "name": "taskText",
              "type": "string"
            },
            {
              "internalType": "bool",
              "name": "isDeleted",
              "type": "bool"
            }
          ],
          "internalType": "struct TaskContract.Task[]",
          "name": "",
          "type": "tuple[]"
        }
      ],
      "payable": false,
      "stateMutability": "view",
      "type": "function"
    },
    {
      "constant": false,
      "inputs": [
        {
          "internalType": "uint256",
          "name": "taskId",
          "type": "uint256"
        },
        {
          "internalType": "bool",
          "name": "isDeleted",
          "type": "bool"
        }
      ],
      "name": "deleteTask",
      "outputs": [],
      "payable": false,
      "stateMutability": "nonpayable",
      "type": "function"
    }
  ],
  "bytecode": "0x608060405234801561001057600080fd5b50610aaa806100206000396000f3fe608060405234801561001057600080fd5b50600436106100415760003560e01c806320df4581146100465780636e13f81814610062578063aaba290714610080575b600080fd5b610060600480360361005b91908101906106cf565b61009c565b005b61006a61020e565b60405161007791906108e9565b60405180910390f35b61009a60048036036100959190810190610727565b6104b7565b005b6000808054905090506000604051806060016040528083815260200186868080601f016020809104026020016040519081016040528093929190818152602001838380828437600081840152601f19601f82011690508083019250505050505050815260200184151581525090806001815401808255809150509060018203906000526020600020906003020160009091929091909150600082015181600001556020820151816001019080519060200190610159929190610593565b5060408201518160020160006101000a81548160ff021916908315150217905550505050336001600083815260200190815260200160002060006101000a81548173ffffffffffffffffffffffffffffffffffffffff021916908373ffffffffffffffffffffffffffffffffffffffff1602179055507f1f54e1ba1832d428fbd7e7792beaf62b1fc5a382c207ffd614209c1413e94fda33826040516102009291906108c0565b60405180910390a150505050565b60608060008054905060405190808252806020026020018201604052801561025057816020015b61023d610613565b8152602001906001900390816102355790505b509050600080905060008090505b600080549050811015610427573373ffffffffffffffffffffffffffffffffffffffff166001600083815260200190815260200160002060009054906101000a900473ffffffffffffffffffffffffffffffffffffffff1673ffffffffffffffffffffffffffffffffffffffff16148015610308575060001515600082815481106102e557fe5b906000526020600020906003020160020160009054906101000a900460ff161515145b1561041a576000818154811061031a57fe5b906000526020600020906003020160405180606001604052908160008201548152602001600182018054600181600116156101000203166002900480601f0160208091040260200160405190810160405280929190818152602001828054600181600116156101000203166002900480156103d65780601f106103ab576101008083540402835291602001916103d6565b820191906000526020600020905b8154815290600101906020018083116103b957829003601f168201915b505050505081526020016002820160009054906101000a900460ff16151515158152505083838151811061040657fe5b602002602001018190525081806001019250505b808060010191505061025e565b5060608160405190808252806020026020018201604052801561046457816020015b610451610613565b8152602001906001900390816104495790505b50905060008090505b828110156104ad5783818151811061048157fe5b602002602001015182828151811061049557fe5b6020026020010181905250808060010191505061046d565b5080935050505090565b3373ffffffffffffffffffffffffffffffffffffffff166001600084815260200190815260200160002060009054906101000a900473ffffffffffffffffffffffffffffffffffffffff1673ffffffffffffffffffffffffffffffffffffffff16141561058f5760016000838154811061052d57fe5b906000526020600020906003020160020160006101000a81548160ff0219169083151502179055507ff88a35c3d2016c409a46570b994a17b408dbc83c14a03f521512d50b85386d06828260405161058692919061090b565b60405180910390a15b5050565b828054600181600116156101000203166002900490600052602060002090601f016020900481019282601f106105d457805160ff1916838001178555610602565b82800160010185558215610602579182015b828111156106015782518255916020019190600101906105e6565b5b50905061060f9190610636565b5090565b604051806060016040528060008152602001606081526020016000151581525090565b61065891905b8082111561065457600081600090555060010161063c565b5090565b90565b60008135905061066a81610a39565b92915050565b60008083601f84011261068257600080fd5b8235905067ffffffffffffffff81111561069b57600080fd5b6020830191508360018202830111156106b357600080fd5b9250929050565b6000813590506106c981610a50565b92915050565b6000806000604084860312156106e457600080fd5b600084013567ffffffffffffffff8111156106fe57600080fd5b61070a86828701610670565b9350935050602061071d8682870161065b565b9150509250925092565b6000806040838503121561073a57600080fd5b6000610748858286016106ba565b92505060206107598582860161065b565b9150509250929050565b600061076f8383610852565b905092915050565b610780816109bf565b82525050565b600061079182610944565b61079b8185610967565b9350836020820285016107ad85610934565b8060005b858110156107e957848403895281516107ca8582610763565b94506107d58361095a565b925060208a019950506001810190506107b1565b50829750879550505050505092915050565b61080481610989565b82525050565b61081381610989565b82525050565b60006108248261094f565b61082e8185610978565b935061083e8185602086016109f5565b61084781610a28565b840191505092915050565b600060608301600083015161086a60008601826108a2565b50602083015184820360208601526108828282610819565b915050604083015161089760408601826107fb565b508091505092915050565b6108ab816109b5565b82525050565b6108ba816109b5565b82525050565b60006040820190506108d56000830185610777565b6108e260208301846108b1565b9392505050565b600060208201905081810360008301526109038184610786565b905092915050565b600060408201905061092060008301856108b1565b61092d602083018461080a565b9392505050565b6000819050602082019050919050565b600081519050919050565b600081519050919050565b6000602082019050919050565b600082825260208201905092915050565b600082825260208201905092915050565b60008115159050919050565b600073ffffffffffffffffffffffffffffffffffffffff82169050919050565b6000819050919050565b60006109ca826109d1565b9050919050565b60006109dc826109e3565b9050919050565b60006109ee82610995565b9050919050565b60005b83811015610a135780820151818401526020810190506109f8565b83811115610a22576000848401525b50505050565b6000601f19601f8301169050919050565b610a4281610989565b8114610a4d57600080fd5b50565b610a59816109b5565b8114610a6457600080fd5b5056fea365627a7a7231582098192117c6b092ef0b3e50b345f29228c8edee624b58403a63d96672fed2fefc6c6578706572696d656e74616cf564736f6c63430005100040",
  "source": "//SPDX-License-Identifier: MIT\npragma solidity >=0.4.22;\npragma experimental ABIEncoderV2;\ncontract TaskContract {\n  event AddTask(address recipient,uint taskId);\n  event DeleteTask(uint taskId,bool isDeleted);\n  struct Task{\n   uint id;\n   string taskText;\n   bool isDeleted;\n  }\n  Task[] private tasks;\n  mapping(uint256=>address)taskToOwner;\n  function  addTask(string calldata taskText,bool isDeleted) external {\n   uint taskId=tasks.length;\n   tasks.push(Task(taskId,taskText,isDeleted));\n   taskToOwner[taskId]=msg.sender;\n   emit AddTask(msg.sender,taskId);\n  }\n  //get tasks that are mine and not yet deleted\n  function getMyTasks() external view returns(Task[] memory) {\n   Task[] memory temporary=new Task[](tasks.length);\n   uint counter=0;\n   for(uint i=0;i<tasks.length;i++){\n    if(taskToOwner[i]==msg.sender && tasks[i].isDeleted==false){\n       temporary[counter]=tasks[i];\n       counter++;\n    }\n   }\n   Task[]memory result=new Task[](counter);\n   for(uint i=0;i<counter;i++){\n    result[i]=temporary[i];\n   }\n   return result;\n  }\n  function deleteTask(uint taskId,bool isDeleted)external{\n    if(taskToOwner[taskId]==msg.sender){\n      tasks[taskId].isDeleted=true;\n      emit DeleteTask(taskId,isDeleted);\n    }\n  }\n\n}\n",
  "sourcePath": "C:\\Users\\Admin\\todo-app-blockchain\\todo-app-blockchain-backend\\contracts\\TaskContract.sol",
  "compiler": {
    "name": "solc",
    "version": "0.5.16+commit.9c3226ce.Emscripten.clang"
  },
  "schemaVersion": "3.4.8",
  "updatedAt": "2022-07-28T06:10:50.752Z",
  "devdoc": {
    "methods": {}
  },
  "userdoc": {
    "methods": {}
  }
}